:100000000C9434000C9470000C94B8000C944600CE
:100010000C9446000C9446000C9446000C94460048
:100020000C9446000C9446000C9446000C94460038
:100030000C9446000C9400010C9446000C9446006D
:100040000C9446000C9446000C9446000C94460018
:100050000C9446000C9446000C9446000C94460008
:100060000C9446000C94460011241FBECFEFD8E03C
:10007000DEBFCDBF21E0A0E0B1E001C01D92A03203
:10008000B207E1F70E9416010C94A3020C94000041
:1000900085E08093690083E08DBB089585E085BD90
:1000A00083EA84BD17BC18BC089581E08093810069
:1000B00080936F00089582E284B980E68AB980E473
:1000C0008AB98AB98AB98BB908959093C50080938B
:1000D000C40088E18093C1008EE08093C20008953F
:1000E0001F920F920FB60F9211242F933F938F936D
:1000F0009F93AF93BF934A9B0BC0109219018091BD
:10010000840090918500909317018093160125C07B
:100110008091840090918500909315018093140143
:100120002091160130911701821B930B90930B01C4
:1001300080930A01A0E0B0E024E0B595A7959795DB
:1001400087952A95D1F790930701809306018C5DDE
:10015000954090931F0180931E01BF91AF919F9195
:100160008F913F912F910F900FBE0F901F90189578
:100170001F920F920FB60F9211242F933F938F93DC
:100180009F93AF93BF934B9B0BC01092180180912C
:10019000840090918500909313018093120125C0F3
:1001A00080918400909185009093110180931001BB
:1001B0002091120130911301821B930B909309013E
:1001C00080930801A0E0B0E024E0B595A79597954D
:1001D00087952A95D1F790930501809304018C5D52
:1001E000954090931B0180931A01BF91AF919F910D
:1001F0008F913F912F910F900FBE0F901F901895E8
:100200001F920F920FB60F9211248F9380911901B4
:100210008F5F80931901809118018F5F809318017F
:100220008F910F900FBE0F901F9018950E944E0057
:100230000E9455000E9448000E945B0017BC18BC39
:10024000789410E4FF24FA941BB91BB960911E0145
:1002500070911F0177FF03C0719561957109072E99
:10026000000C880B990B0E9417022AE939E949EF23
:100270005FE30E9474010E94E601062FC62FD72F6C
:10028000802F972F90930F0180930E0160911A0198
:1002900070911B0177FF03C0719561957109072E5D
:1002A000000C880B990B0E9417022AE939E949EFE3
:1002B0005FE30E9474010E94E60170930D01609358
:1002C0000C01CF3FD10509F010F407BD01C0F7BC08
:1002D00080910C0190910D018F3F910509F010F470
:1002E00088BDB2CFF8BCB0CF0E9488010C946902DF
:1002F0000E94620258F00E945B0240F029F45F3FC6
:1003000029F00C94520251110C949D020C94580245
:100310000E947A0268F39923B1F3552391F3951B58
:10032000550BBB27AA2762177307840738F09F5F16
:100330005F4F220F331F441FAA1FA9F335D00E2E83
:100340003AF0E0E832D091505040E695001CCAF7F0
:100350002BD0FE2F29D0660F771F881FBB1F2617B3
:1003600037074807AB07B0E809F0BB0B802DBF018A
:10037000FF2793585F4F3AF09E3F510578F00C9459
:1003800052020C949D025F3FE4F3983ED4F38695AD
:1003900077956795B795F7959F5FC9F7880F911D7A
:1003A0009695879597F90895E1E0660F771F881F66
:1003B000BB1F621773078407BA0720F0621B730B19
:1003C000840BBA0BEE1F88F7E09508950E94820215
:1003D00088F09F5798F0B92F9927B751B0F0E1F006
:1003E000660F771F881F991F1AF0BA95C9F714C0B6
:1003F000B13091F00E949C02B1E008950C949C02EF
:10040000672F782F8827B85F39F0B93FCCF38695EE
:1004100077956795B395D9F73EF49095809570954B
:1004200061957F4F8F4F9F4F0895E89409C097FBC8
:100430003EF490958095709561957F4F8F4F9F4FBB
:100440009923A9F0F92F96E9BB279395F6958795FF
:1004500077956795B795F111F8CFFAF4BB0F11F4C2
:1004600060FF1BC06F5F7F4F8F4F9F4F16C0882369
:1004700011F096E911C0772321F09EE8872F762F9F
:1004800005C0662371F096E8862F70E060E02AF0E0
:100490009A95660F771F881FDAF7880F96958795CC
:1004A00097F9089597F99F6780E870E060E00895F4
:1004B0009FEF80EC089500240A941616170618067C
:1004C0000906089500240A94121613061406050658
:1004D0000895092E0394000C11F4882352F0BB0FE9
:1004E00040F4BF2B11F460FF04C06F5F7F4F8F4F4C
:1004F0009F4F089557FD9058440F551F59F05F3F87
:1005000071F04795880F97FB991F61F09F3F79F035
:1005100087950895121613061406551FF2CF4695B7
:10052000F1DF08C0161617061806991FF1CF869539
:100530007105610508940895E894BB27662777271D
:0A054000CB0197F90895F894FFCF5E
:00000001FF
